:021C9B001C33F8
:021C9D001C2108
:021C9F001C5CCB
:101C21001200407F01121CA57F021209827F01026E
:021C31000A0B9C
:0F1C33007F011209827F02120982E4FF020A0B6D
:0C1C5C0012130D7D0A7F02120A9480F41E
:031CA100011A0025
:03004000020003B8
:031CA5008F1A2271
:10130D00E51A1460171460271460382403705DE427
:10131D00FDFF121BD1E4FD7F01021BD17D01E4FF16
:10132D00121BD17D3C7F02120A94E4FDFF80337DB8
:10133D00017F01121BD17D3C7F02120A94E4FD7FD7
:10134D0001801F7D01E4FF121BD17D017F01121B66
:10135D00D17D3C7F02120A94E4FDFF121BD1E4FD06
:0D136D007F01121BD17D3C7F02120A9422E9
:10144000900001120ED2FFE5DE54F04FF5DE900061
:1014500002120ED2C43354E0FFE5DE54DF4FF5DE56
:10146000120EB9FFD3941F502B900003120ED2FE20
:10147000D39401501F900004120ED2FDD394035058
:1014800013EDC43354E0FDEEC433333354804D4F79
:0514900090FEA8F0220F
:0B1C6800BF010443BC802253BC7F225C
:10137A00EFD3940F40028060E4F5BDF5BEE5BC549E
:10138A00F044404FF5BC00000000000000000000DF
:10139A00E4FDE5BC30E53D53BCDFE5DEAFBD30E53D
:1013AA000EEFFEACBEECFBEEF518EBF519802075DE
:1013BA0018008F19E5BEC4540FFBE519C4F8540F81
:1013CA00C868FFE518C454F048F518EF4BF519AE94
:0C13DA0018AF19220DBDFABA7E107F007A
:0113E60022E4
:101BBA007D607C09ED1D70011C144C70F7EF1F70DD
:061BCA00011E144E70EA3A
:011BD00022F2
:100C6500EFD3940740037FFF22120EB9FED39403FE
:100C750040037FFF22EF7041EE700B900001120ED2
:100C8500D2F452935294120EB9B4010B9000011292
:100C95000ED24293F45294120EB9FEB4020A900099
:100CA50001120ED242934294EEB4030D900001124C
:100CB5000ED2FEF45293EE4294EF64017043120E8D
:100CC500B9FE700B900001120ED2F452915292EEC1
:100CD500B4010B900001120ED24291F45292120E01
:100CE500B9B4020A900001120ED242914292120E3C
:100CF500B9B4030D900001120ED2FEF45291EE42EA
:100D050092EF64027043120EB9FE700B900001124F
:100D15000ED2F452955296EEB4010B900001120ECC
:100D2500D24295F45296120EB9B4020A90000112FD
:100D35000ED242954296120EB9B4030D90000112DF
:100D45000ED2FEF45295EE4296EF64037043120EF6
:100D5500B9FE700B900001120ED2F452B152B2EEF0
:100D6500B4010B900001120ED242B1F452B2120E30
:100D7500B9B4020A900001120ED242B142B2120E6B
:100D8500B9B4030D900001120ED2FEF452B1EE4239
:100D9500B2EF64047043120EB9FE700B900001129D
:100DA5000ED2F452B352B4EEB4010B900001120E00
:100DB500D242B3F452B4120EB9B4020A9000011231
:100DC5000ED242B342B4120EB9B4030D9000011213
:100DD5000ED2FEF452B3EE42B4EF64057043120E28
:100DE500B9FE700B900001120ED2F452C952CAEE30
:100DF500B4010B900001120ED242C9F452CA120E70
:100E0500B9B4020A900001120ED242C942CA120EAA
:100E1500B9B4030D900001120ED2FEF452C9EE4290
:100E2500CAEF64067043120EB9FE700B90000112F2
:100E35000ED2F452CB52CCEEB4010B900001120E3F
:100E4500D242CBF452CC120EB9B4020A9000011270
:100E55000ED242CB42CC120EB9B4030D9000011252
:100E65000ED2FEF452CBEE42CCEF64077043120E65
:100E7500B9FF700B900001120ED2F452E152E2EF6D
:100E8500B4010B900001120ED242E1F452E2120EAF
:100E9500B9B4020A900001120ED242E142E2120EEA
:100EA500B9B4030D900001120ED2FFF452E1EF42E6
:040EB500E27F0022B6
:1016C600EFD3940140037FFF22EDD3940340037FC1
:1016D600FF22EF7004C2A98002D2A9ED700553B7AC
:1016E600FDC2B9BD010553B7FDD2B9BD020543B769
:0E16F60002C2B9BD030543B702D2B97F00227C
:10170400EFD3940140037FFF22EDD3940340037F82
:10171400FF22EF7004C2AB8002D2ABED700553B769
:10172400F7C2BBBD010553B7F7D2BBBD020543B732
:0E17340008C2BBBD030543B708D2BB7F00222D
:101B4500EFD3940140037FFF22EDD3940340037F3D
:101B5500FF22EF25E025E0FFE5AF54FB4FF5AFE4AD
:021B6500FF225D
:101B6700EFD3940140037FFF22EDD3940340037F1B
:101B7700FF22EFC43354E0FFE5AF54DF4FF5AFE486
:021B8700FF223B
:101B2200EFD3940140037FFF22EDD3940340037F60
:101B3200FF22EFC4333354C0FFE5AF54BF4FF5AFBC
:031B4200E4FF229B
:10174200EFD3940140037FFF22EDD3940340037F44
:10175200FF22EF7004C2A88002D2A8ED700553B731
:10176200FEC2B8BD010553B7FED2B8BD020543B7EC
:0E17720001C2B8BD030543B701D2B87F002203
:10178000EFD3940140037FFF22EDD3940340037F06
:10179000FF22EF7004C2AA8002D2AAED700553B7EF
:1017A000FBC2BABD010553B7FBD2BABD020543B7B0
:0E17B00004C2BABD030543B704D2BA7F0022BB
:101BA200EFD3940140037FFF22EFC454F0FFE58F8F
:081BB20054EF4FF58FE4FF2210
:101B8900EFD3940140037FFF22EFC43354E0FFE514
:091B99008F54DF4FF58FE4FF22A9
:10002600EFD3940140037FFF22EFC4333354C0FF64
:0A003600E58F54BF4FF58FE4FF2261
:1017BE00EFD3940140037FFF22EDD3940340037FC8
:1017CE00FF22EF7004C2AD8002D2ADED700553B7AB
:1017DE00DFC2BDBD010553B7DFD2BDBD020543B7A4
:0E17EE0020C2BDBD030543B720D2BD7F00223F
:10157000EDD3940340037FFF22EF30E10543E620E3
:10158000800353E6DFEF30E00543E610800353E6C7
:10159000EFED700653B6DF53B5DFBD010653B6DF7E
:1015A00043B520BD020643B62053B5DFBD03064355
:0815B000B62043B5207F0022A4
:1013E700EFD3940140037FFF22EBD3940340037FA5
:1013F700FF22BF0112ED90FE817006E0547FF0805E
:1014070011E04480F0800BEF700890FE83E0548772
:101417004DF0EB700653B6DF53B5DFBB010653B68D
:10142700DF43B520BB020643B62053B5DFBB030637
:0914370043B62043B5207F0022DA
:1017FC00EFD3940140037FFF22EDD3940340037F8A
:10180C00FF22EF7004C2AC8002D2ACED700553B76E
:10181C00EFC2BCBD010553B7EFD2BCBD020543B747
:0E182C0010C2BCBD030543B710D2BC7F002222
:10168600EFD3940140037FFF22EDD3940340037F01
:10169600FF22E5AF54FE4FF5AFED700653B6FE538D
:1016A600B5FEBD010653B6FE43B501BD020643B6FF
:1016B6000153B5FEBD030643B60143B5017F0022C3
:1015B800EFD3940140037FFF22EDD3940340037FD0
:1015C800FF22EF33333354F8FFE5AF54F74FF5AF4D
:1015D800ED700653EEFE53DFFEBD010653EEFE43EB
:1015E800DF01BD020643EE0153DFFEBD030643EEF5
:0715F8000143DF017F002227
:10004600EFD3940140037FFF22EDD3940340037F57
:10005600FF22EFC454F0FFE5AF54EF4FF5AFED705C
:100066000653EEFD53DFFDBD010653EEFD43DF02F1
:10007600BD020643EE0253DFFDBD030643EE024317
:05008600DF027F0022F3
:1015FF00EFD3940140037FFF22EDD3940340037F89
:10160F00FF22EF25E0FFE5AF54FD4FF5AFED70067C
:10161F0053B6FD53B5FDBD010653B6FD43B502BD2F
:10162F00020643B60253B5FDBD030643B60243B5EA
:04163F00027F002204
:10129300EFD3948140037FFF22EBD3940340037F7A
:1012A300FF22EF247F603004705890FEC4EDF0EB12
:1012B300700653B6FB53B5FBBB010653B6FB43B5F0
:1012C30004BB020643B60453B5FBEB640370384317
:1012D300B60443B504803090FEE4EDF0EB700653A2
:1012E300B6F753B5F7BB010653B6F743B508BB02D0
:1012F3000643B60853B5F7BB030D43B60843B50819
:0A130300800590FEE4EDF07F00226B
:10183A00EDD394035026ED700653EEFB53DFFBBD48
:10184A00010653EEFB43DF04BD020643EE0453DFF9
:10185A00FBBD030B43EE0443DF0480037FFF2290AA
:07186A00FE62EFF07F002297
:1018710090FA10E054F0F0EDD39403500BE0FEED3C
:1018810025E025E0FDEE4DF0EBD39403500690FAF0
:1018910010E04BF090FA10E0BF01054480F08003A6
:0618A100547FF07F0022DD
:1018A70090FA00E054F0F0EDD39403500BE0FEED16
:1018B70025E025E0FDEE4DF0EBD39403500690FABA
:1018C70000E04BF090FA00E0BF01054480F0800390
:0618D700547FF07F0022A7
:1018DD0090FA20E054F0F0EDD39403500BE0FEEDC0
:1018ED0025E025E0FDEE4DF0EBD39403500690FA84
:1018FD0020E04BF090FA20E0BF01054480F080031A
:06190D00547FF07F002270
:1019130090FA30E054F0F0EDD39403500BE0FEED79
:1019230025E025E0FDEE4DF0EBD39403500690FA4D
:1019330030E04BF090FA30E0BF01054480F08003C3
:06194300547FF07F00223A
:1019490090FA38E054F0F0EDD39403500BE0FEED3B
:1019590025E025E0FDEE4DF0EBD39403500690FA17
:1019690038E04BF090FA38E0BF01054480F080037D
:06197900547FF07F002204
:10197F0090FA40E054F0F0EDD39403500BE0FEEDFD
:10198F0025E025E0FDEE4DF0EBD39403500690FAE1
:10199F0040E04BF090FA40E0BF01054480F0800337
:0619AF00547FF07F0022CE
:1019B50090FA48E054F0F0EDD39403500BE0FEEDBF
:1019C50025E025E0FDEE4DF0EBD39403500690FAAB
:1019D50048E04BF090FA48E0BF01054480F08003F1
:0619E500547FF07F002298
:1019EB0090FA50E054F0F0EDD39403500BE0FEED81
:1019FB0025E025E0FDEE4DF0EBD39403500690FA75
:101A0B0050E04BF090FA50E0BF01054480F08003AA
:061A1B00547FF07F002261
:101A210090FA58E054F0F0EDD39403500BE0FEED42
:101A310025E025E0FDEE4DF0EBD39403500690FA3E
:101A410058E04BF090FA58E0BF01054480F0800364
:061A5100547FF07F00222B
:101A570090FA60E054F0F0EDD39403500BE0FEED04
:101A670025E025E0FDEE4DF0EBD39403500690FA08
:101A770060E04BF090FA60E0BF01054480F080031E
:061A8700547FF07F0022F5
:101A8D0090FA68E054F0F0EDD39403500BE0FEEDC6
:101A9D0025E025E0FDEE4DF0EBD39403500690FAD2
:101AAD0068E04BF090FA68E0BF01054480F08003D8
:061ABD00547FF07F0022BF
:101AC30090FA70E054F0F0EDD39403500BE0FEED88
:101AD30025E025E0FDEE4DF0EBD39403500690FA9C
:101AE30070E04BF090FA70E0BF01054480F0800392
:061AF300547FF07F002289
:101AF90090FE50E054CFF0EDD39403500AE0FEED90
:101B0900C454F0FDEE4DF090FE50E0BF0105448055
:091B1900F08003547FF07F0022EC
:080096008F0E8B0F8A108911F7
:10009E00E50E6401600302020CF521F522F523F54D
:1000AE0024F525F512F51374402513F582740135E8
:1000BE0012F583E4F00513E5137002051264804512
:1000CE001270E4E4F512F51374002513F582740032
:1000DE003512F583E4F00513E51370020512648002
:1000EE00451270E4AB0FAA10A911120EB9FFE598D4
:1000FE00543F4FF598EF64C06008EF644060030210
:10010E0001C19000021210547F807E8D7D5B7C00B9
:10011E00120F9E8F178E168D158C14E4FFFE7D0127
:10012E00FCAB17AA16A915A814C312103040037FF2
:10013E00FF22C3E49517F517E49516F5167401958D
:10014E0015F515E49514F514AB0FAA10A91190002E
:10015E0001120ED2FB6401702CC28E538EFE538997
:10016E00BF5389CF438E40AF17AE16AD15AC147882
:10017E00081210418F8D85178BC2AB5389BF538FD9
:10018E00FDD28E8062EB64027026538EEF438E0199
:10019E00538EF7438E04AF17AE16AD15AC14780818
:1001AE001210418FD68517D753AFFB438E10803771
:1001BE007FFF22AB0FAA10A911120EB9FF70139078
:1001CE000008120ED2B40105438E20801A538EDF22
:1001DE008015EFB48011900008120ED2B4010543C1
:1001EE008780800353877FAB0FAA10A91190000759
:1001FE00120ED27004C29C8002D29C7F0022E50EA9
:10020E0064026003020305F526F527F528F529F5A6
:10021E002AF512F51374E02513F58274013512F5E3
:10022E0083E4F00513E51370020512648045127025
:10023E00E4E4F512F51374802513F582740035127B
:10024E00F583E4F00513E513700205126480451280
:10025E0070E4AB0FAA10A911120EB9FF64C06005AD
:10026E00EF64407075EFB4C005439A808003539AD3
:10027E007F9000021210547F807E8D7D5B7C001279
:10028E000F9E8F178E168D158C14E4FFFE7D01FCCC
:10029E00AB17AA16A915A814C312103040037FFF7E
:1002AE0022C3E49517F517E49516F5167401951506
:1002BE00F515E49514F514538EEF538EF7438E0413
:1002CE00AF17AE16AD15AC1478081210418FD68547
:1002DE0017D753AFFB438E1080037FFF22AB0FAABD
:1002EE0010A911900007120ED2C454F0FFE59A54D3
:1002FE00EF4FF59A7F0022E50E6403600302043986
:10030E00F52BF52CF52DF52EF52FF512F513746052
:10031E002513F58274023512F583E4F00513E51307
:10032E00700205126440451270E4E4F512F5137480
:10033E00002513F58274013512F583E4F00513E5FB
:10034E0013700205126440451270E4AB0FAA10A997
:10035E0011120EB9FF64C06008EF6440600302041E
:10036E001CEFB4C00543AC80800353AC7F900002F9
:10037E001210547F807E8D7D5B7C00120F9E8F1736
:10038E008E168D158C14E4FFFE7D01FCAB17AA169C
:10039E00A915A814C312103040037FFF22C3E495A1
:1003AE0017F517E49516F51674019515F515E495E0
:1003BE0014F514AB0FAA10A911900001120ED2FB66
:1003CE00B4031D43AC40AF17AE16AD15AC14780890
:1003DE001210418FD48517D553D1F043D10A8031F5
:1003EE00EB64027026538EEF53ACBF538EF7438EE1
:1003FE0004AF17AE16AD15AC1478081210418FD697
:10040E008517D753AFFB438E1080067FFF227FFFE9
:10041E0022AB0FAA10A911900007120ED2C454F0ED
:10042E00FFE5AC54EF4FF5AC7F0022E50E6404609F
:10043E000302056DF530F531F532F533F534F5126D
:10044E00F51374A02513F58274023512F583E4F0CA
:10045E000513E513700205126420451270E4E4F5ED
:10046E0012F51374C02513F58274013512F583E469
:10047E00F00513E513700205126420451270E4AB0B
:10048E000FAA10A911120EB9FF64C06008EF6440E4
:10049E006003020550EFB4C005438480800353848B
:1004AE007F9000021210547F807E8D7D5B7C001247
:1004BE000F9E8F178E168D158C14E4FFFE7D01FC9A
:1004CE00AB17AA16A915A814C312103040037FFF4C
:1004DE0022C3E49517F517E49516F51674019515D4
:1004EE00F515E49514F514AB0FAA10A9119000019F
:1004FE00120ED2FBB4041D438440AF17AE16AD15D9
:10050E00AC1478081210418FD28517D353D10F43F4
:10051E00D1A08031EB64027026538EEF5384BF530B
:10052E008EF7438E04AF17AE16AD15AC14780812C5
:10053E0010418FD68517D753AFFB438E1080067FA1
:10054E00FF227FFF22AB0FAA10A911900007120EF7
:10055E00D2C454F0FFE58454EF4FF5847F00227F20
:01056E00FF8D
:01056F002269
:0A1C73008F99752301E52370FC2210
:10000E00120EB9FF600C121C73740129F9E43AFA4E
:03001E0080EE224F
:0A1C7D008F9B752801E52870FC22FA
:101BE800120EB9FF600C121C7D740129F9E43AFA4F
:031BF80080EE225A
:0A1C87008FAD752D01E52D70FC22D4
:101BFB00120EB9FF600C121C87740129F9E43AFA32
:031C0B0080EE2246
:0A1C91008F85753201E53270FC22E8
:101C0E00120EB9FF600C121C91740129F9E43AFA14
:031C1E0080EE2233
:05008E00AE07021C7327
:030023000216437F
:10164300C0E0C083C082C0D075D000C007309820EE
:10165300C298E524C394804003752400AF24052475
:1016630074002FF582E43400F583E599F0752505C0
:10167300309905C299752300D007D0D0D082D0838A
:03168300D0E03282
:030043000214950F
:10149500C0E0C083C082C0D075D000C007E59A30D7
:1014A500E021539AFEE529C394804003752900AFD6
:1014B50029052974802FF582E43400F583E59BF036
:1014C500752A05E59A30E106539AFD752800D0077F
:0914D500D0D0D082D083D0E032E7
:03008B000214DE7E
:1014DE00C0E0C083C082C0D075D000C007E5AC307C
:1014EE00E02153ACFEE52EC394404003752E00AFB1
:1014FE002E052E74002FF582E43401F583E5ADF050
:10150E00752F05E5AC30E10653ACFD752D00D00707
:09151E00D0D0D082D083D0E0329D
:030093000215272C
:10152700C0E0C083C082C0D075D000C007E584305A
:10153700E0215384FEE533C394204003753300AFA5
:1015470033053374C02FF582E43401F583E585F064
:10155700753405E58430E1065384FD753200D00704
:09156700D0D0D082D083D0E03254
:10057000AD07ED6401707A90FECCE054FEF0E054DB
:10058000FBF090FEC8E054FCF0120EB9FF90FEC8DC
:10059000E0548F4FF0900006120ED2FF90FECC3048
:1005A000E00DE04401F090FEB1E04401F0800BE08A
:1005B00054FEF090FEB1E054FEF0EF90FECC30E13E
:1005C0000DE04404F090FEB1E04402F0800BE054F2
:1005D000FBF090FEB1E054FDF0900003120F2AE50D
:1005E000F090FED5F0900003120F2A90FED602097B
:1005F0002AED6402707A90FECCE054EFF0E054BF34
:10060000F090FEC9E054FCF0120EB9FF90FEC9E074
:10061000548F4FF0900006120ED2FF90FECC30E2C5
:100620000DE04410F090FEB1E04404F0800BE05483
:10063000EFF090FEB1E054FBF0EF90FECC30E30D14
:10064000E04440F090FEB1E04408F0800BE054BF7D
:10065000F090FEB1E054F7F0900003120F2AE5F09D
:1006600090FED7F0900003120F2A90FED802092ABC
:10067000ED6403707A90FECDE054FEF0E054FBF0A0
:1006800090FECAE054FCF0120EB9FF90FECAE0548E
:100690008F4FF0900006120ED2FF90FECD30E40D89
:1006A000E04401F090FEB1E04410F0800BE054FE15
:1006B000F090FEB1E054EFF0EF90FECD30E50DE0AC
:1006C0004404F090FEB1E04420F0800BE054FBF0D5
:1006D00090FEB1E054DFF0900003120F2AE5F09095
:1006E000FED9F0900003120F2A90FEDA02092AEDDB
:1006F0006404707A90FECDE054EFF0E054BFF090C7
:10070000FECBE054FCF0120EB9FF90FECBE0548F0C
:100710004FF0900006120ED2FF90FECD30E60DE0B5
:100720004410F090FEB1E04440F0800BE054EFF054
:1007300090FEB1E054BFF0EF90FECD30E70DE04405
:1007400040F090FEB1E04480F0800BE054BFF090A8
:10075000FEB1E0547FF0900003120F2AE5F090FE06
:10076000DBF0900003120F2A90FEDC02092AED64F0
:1007700080704F900005120ED290FEDEF0900001C6
:10078000120F2AE5F090FED2F0900001120F2A908D
:10079000FED3F0900008120ED290FEDDB40106E008
:1007A0004480F08004E0547FF0900007120ED29055
:1007B000FEC0B40106E04401F08004E054FEF07F86
:1007C0000022ED6405705690FEECE054FEF090FEC1
:1007D000E8E054FCF0120EB9FF90FEE8E0548F4FB1
:1007E000F0900006120ED290FEEC30E00DE04401D5
:1007F000F090FEB5E04401F0800BE054FEF090FE76
:10080000B5E054FEF0900003120F2AE5F090FEF5DB
:10081000F0900003120F2A90FEF602092AED6406FA
:10082000705690FEECE054EFF090FEE9E054FCF0DE
:10083000120EB9FF90FEE9E0548F4FF090000612BF
:100840000ED290FEEC30E20DE04410F090FEB5E0E8
:100850004404F0800BE054EFF090FEB5E054FBF060
:10086000900003120F2AE5F090FEF7F090000312BB
:100870000F2A90FEF802092AED6407705590FEEDEC
:10088000E054FEF090FEEAE054FCF0120EB9FF9046
:10089000FEEAE0548F4FF0900006120ED290FEED6B
:1008A00030E40DE04401F090FEB5E04410F0800B20
:1008B000E054FEF090FEB5E054EFF0900003120F0C
:1008C0002AE5F090FEF9F0900003120F2A90FEFA4C
:1008D0008058ED6408705790FEEDE054EFF090FE04
:1008E000EBE054FCF0120EB9FF90FEEBE0548F4F9A
:1008F000F0900006120ED290FEED30E60DE04410AE
:10090000F090FEB5E04440F0800BE054EFF090FE34
:10091000B5E054BFF0900003120F2AE5F090FEFB03
:10092000F0900003120F2A90FEFCF07F0022ED648D
:1009300081704C900005120ED290FEFEF0900001E6
:10094000120F2AFDACF0EC90FEF2F0AF05A3EFF031
:10095000900008120ED290FEFDB40106E04480F033
:100960008004E0547FF0900007120ED290FEE0B4B5
:100970000106E04401F08004E054FEF07F00227F95
:02098000FF2254
:1010BA00EF248070030211751470030211BA2480A0
:1010CA00B4080040030212069010E075F003A4C5AC
:1010DA008325F0C583730210F80211050211150267
:1010EA001125021135021145021155021165120E20
:1010FA00FFFDACF0EC90FED5021200900002120F38
:10110A002AFDACF0EC90FED7021200900004120FF8
:10111A002AFDACF0EC90FED9021200900006120FE4
:10112A002AFDACF0EC90FEDB021200900008120FD0
:10113A002AFDACF0EC90FEF502120090000A120FA4
:10114A002AFDACF0EC90FEF702120090000C120F90
:10115A002AFDACF0EC90FEF902120090000E120F7C
:10116A002AFDACF0EC90FEFB021200120EFFFDAC61
:10117A00F0EC90FED5F0AF05A3EFF0900002120F4D
:10118A002AFDACF0EC90FED7F0AF05A3EFF090008B
:10119A0004120F2AFDACF0EC90FED9F0AF05A3EFD4
:1011AA00F0900006120F2AFDACF0EC90FEDB8046B0
:1011BA00900008120F2AFDACF0EC90FEF5F0AF0596
:1011CA00A3EFF090000A120F2AFDACF0EC90FEF7A4
:1011DA00F0AF05A3EFF090000C120F2AFDACF0EC73
:1011EA0090FEF9F0AF05A3EFF090000E120F2AFD62
:0D11FA00ACF0EC90FEFBF0AF05A3EFF0228F
:0D1C420053937F53947F53C9FB53CAFB2279
:08000300121C42C2CAC287228E
:0D1C4F00EF7004A2878002A2CAE433FF22D6
:101BD100EF700AED6003D38001C3928722ED6003A9
:071BE100D38001C392CA2268
:10098200EFD3940240037FFF2274362F2FF8E62024
:10099200E5F4C2AFE64430F6D2AFAE0CEEC39F50E0
:1009A200210E741B2EF8E6F908E618BE020274FF47
:1009B200FDED69600909E71919F7090980F31616AF
:1009C20080DAEED39F400405810581EED39F402259
:1009D200741B2EF808E6F9EEB50C02A9811806067A
:1009E200E6FDED6960091919E70909F71980F31E97
:1009F20080D9EF241BF8E604F8EF2F04901C9B9398
:090A0200F608EF2F93F67F0022A5
:100A0B00EFD3940240037FFF22EF232436F8E63026
:100A1B00E5F4C2AFE6548CF6D2AFE50CB5070A7419
:100A2B001B2FF8E6F581020B6E502E741C2FF8E687
:100A3B00BF020274FFFD18E6F9741B2FF8FBE6FCEE
:100A4B00E96C6008A805E7F61D1980F4A803A60554
:100A5B001FE50CB507E37F0022741C2FF8E6FD1889
:100A6B0086010F741B2FF8A601088604E50CB50749
:100A7B0002AC81ED6C60080D09A805E6F780F4E582
:090A8B000CB507DE89817F002211
:100A94008FF0E4FFFEE50C232435F8C2A930F70DEE
:100AA4007F08E6600B2DF660325030800730F10687
:100AB400EDF660277E020830F010C2AFE610E7259D
:100AC4000E30E20CD2AF7F048014C2AFE610E715FB
:100AD40054EC4EF6D2AFD2A9020B6E7F0808EF4455
:0F0AE40083F4C2AF56C6D2AFD2A954804FFF22BF
:03000B00020AF8EE
:100AF300C2AF80FE32120AF785D00B75D008AAE088
:100B0300C28CE58A24F7F58AE58C34D8F58CD28C2F
:100B1300EC241CF8E6BC020274FFC39581B41400F4
:100B230040CE7903783516E608700BC2AFE630E1A4
:100B3300034418F6D2AF08D9EDEA8BD03000012276
:100B4300D50DFCC0E0C0D0C0F0C083C082C000C0DF
:100B530001C002C003C004C005C006C007E50C23E2
:100B63002436F87440C2AF46F6D2AFD200E50CFF8C
:100B7300232436F80F0808BF03047F007836E630D5
:100B8300E4F200E50CC39F5020050C741B250CF800
:100B9300E6FDA68108E6AE0CBE020274FFCDF8E8BE
:100BA3006D60E008E6C0E080F6E50CD39F4027E5E2
:100BB3000C241CF8E6AE0CBE020274FFFD18E6CD51
:100BC300F8E5816D6006D0E0F61880F5E50C241B8E
:100BD300C8F6150C80D3750D05E50C232436F87F74
:100BE30004C2AFE610E61E30E00310E20C7F0030D3
:050BF300E10730E304FE
:100BF8007F0854F4547CC6D2AF54804207C2002206
:100C0800F6D2AFD007D006D005D004D003D002D09A
:100C180001D000D082D083D0F0D0D0D0E0C2002262
:100C2800781BA68174026006FF0876FFDFFB7F034E
:100C3800E47835F608F608DFFA78367630901C9BAB
:100C4800740193C0E0E493C0E0750D054389017514
:0D0C58008AF0758CD8D28CD2AFD2A92202BE
:03000000021207E2
:0C120700787FE4F6D8FD75813A02124EA3
:100EB900BB010689828A83E0225002E722BBFE0237
:090EC900E32289828A83E493226A
:100ED200BB010CE58229F582E5833AF583E02250D5
:100EE20006E92582F8E622BBFE06E92582F8E2221F
:0D0EF200E58229F582E5833AF583E4932239
:100EFF00BB010A89828A83E0F5F0A3E022500687BE
:100F0F00F009E71922BBFE07E3F5F009E31922897F
:0B0F1F00828A83E493F5F074019322B2
:100F2A00BB0110E58229F582E5833AF583E0F5F005
:100F3A00A3E0225009E92582F886F008E622BBFEE2
:100F4A000AE92582F8E2F5F008E222E5832AF58328
:080F5A00E993F5F0A3E99322ED
:100F620075F008758200EF2FFFEE33FECD33CDCC46
:100F720033CCC58233C5829BED9AEC99E5829840C9
:100F82000CF582EE9BFEED9AFDEC99FC0FD5F0D6A6
:100F9200E4CEFBE4CDFAE4CCF9A88222B800C1B9D0
:100FA2000059BA002DEC8BF084CFCECDFCE5F0CB0E
:100FB200F97818EF2FFFEE33FEED33FDEC33FCEB47
:100FC20033FB10D703994004EB99FB0FD8E5E4F902
:100FD200FA227818EF2FFFEE33FEED33FDEC33FCEF
:100FE200C933C910D7059BE99A4007EC9BFCE99AE3
:100FF200F90FD8E0E4C9FAE4CCFB2275F010EF2F28
:10100200FFEE33FEED33FDCC33CCC833C810D70727
:101012009BEC9AE899400AED9BFDEC9AFCE899F862
:0E1022000FD5F0DAE4CDFBE4CCFAE4C8F922F5
:10103000EB9FF5F0EA9E42F0E99D42F0E89C45F016
:01104000228D
:10104100E8600FECC313FCED13FDEE13FEEF13FF8D
:03105100D8F122B1
:10105400BB010DE58229F582E5833AF583021091FF
:101064005007E92582F8021084BBFE07E92582F8BF
:1010740002109DE58229F582E5833AF5830210AAE0
:10121300020C28E493A3F8E493A34003F68001F2BD
:1012230008DFF48029E493A3F85407240CC8C333DC
:10123300C4540F4420C8834004F456800146F6DFAB
:10124300E4800B0102040810204080901CA1E47E7E
:10125300019360BCA3FF543F30E509541FFEE493A0
:10126300A360010ECF54C025E060A840B8E493A367
:10127300FAE493A3F8E493A3C8C582C8CAC583CA92
:10128300F0A3C8C582C8CAC583CADFE9DEE780BE4A
:011CA400003F
:0D108400E6FB08E6F908E6FA08E6CBF822DC
:0C109100E0F8A3E0F9A3E0FAA3E0FB22E2
:0D109D00E2FB08E2F908E2FA08E2CBF822D3
:1010AA00E493F8740193F9740293FA740393FB229C
:00000001FF
